{
  "contractName": "Processing",
  "abi": [
    {
      "constant": false,
      "inputs": [
        {
          "internalType": "uint256",
          "name": "sp",
          "type": "uint256"
        }
      ],
      "name": "ReSpeed",
      "outputs": [
        {
          "internalType": "uint256",
          "name": "",
          "type": "uint256"
        }
      ],
      "payable": false,
      "stateMutability": "nonpayable",
      "type": "function"
    },
    {
      "constant": true,
      "inputs": [],
      "name": "SeSpeed",
      "outputs": [
        {
          "internalType": "uint256",
          "name": "",
          "type": "uint256"
        }
      ],
      "payable": false,
      "stateMutability": "view",
      "type": "function"
    }
  ],
  "bytecode": "0x608060405234801561001057600080fd5b5060ee8061001f6000396000f3fe6080604052348015600f57600080fd5b506004361060325760003560e01c80630dc8b6ae146037578063dc9bbf21146053575b600080fd5b603d6092565b6040518082815260200191505060405180910390f35b607c60048036036020811015606757600080fd5b810190808035906020019092919050505060a1565b6040518082815260200191505060405180910390f35b60008060005490508091505090565b6000816000819055506000805490508091505091905056fea265627a7a72315820ce0d10d2cd68cc62711e46032d893a1a2452bd25886113a05fc9e3c4bedb60ec64736f6c634300050c0032",
  "source": "pragma solidity ^0.5.12;\n\n\ncontract Trading {\n    \n    struct Car{\n        address car_addr;\n        uint[16] map;\n\n    }\n    \n    function StringToBytesVer1(string memory source) internal pure returns (bytes memory) {\n        return bytes(source);\n    }\n    function bytesToAddress(bytes memory bys) internal pure returns (address addr) {\n      assembly {\n        addr := mload(add(bys,20))\n      }\n    }\n  \n    uint car_num;\n    mapping (uint=>Car) car_map;\n\n    function ReceiveCD (string memory _caraddress_s,uint[16] memory _map) public returns(uint[16] memory) {\n        bytes memory add_byte=StringToBytesVer1(_caraddress_s);\n        address _caraddress=bytesToAddress(add_byte);\n        car_num++;\n        car_map[car_num] = Car(_caraddress,_map);\n        return (car_map[car_num].map);\n    } \n    \n    function storageToMemory(uint o) pure internal returns(uint){\n        return o;\n    }\n    function R_car_num() public view returns(uint){\n        return storageToMemory(car_num);\n    }\n    \n    function SendTX(uint _car_num) public view returns(uint[16] memory){\n        Car storage c = car_map[_car_num];\n        return (c.map);\n    }\n\n    function Resp_s(Processing processing) public view returns(uint){\n        return processing.SeSpeed();\n    }\n}\n\ncontract Processing {\n    uint speed;\n    \n    function ReSpeed(uint sp) public returns(uint){\n        speed=sp;\n        uint sp_m=speed;\n        return sp_m;\n    }\n\n    function SeSpeed() public view returns(uint){\n       uint RecommandSpeed = speed;\n       return RecommandSpeed;\n    }\n}\n\n\n\n\n",
  "sourcePath": "/home/seed/Desktop/Try_Again/contracts/Test.sol",
  "compiler": {
    "name": "solc",
    "version": "0.5.12+commit.7709ece9.Emscripten.clang"
  },
  "schemaVersion": "3.0.11",
  "updatedAt": "2021-08-05T15:12:01.800Z",
  "devdoc": {
    "methods": {}
  },
  "userdoc": {
    "methods": {}
  }
}