{
  "contractName": "Trading",
  "abi": [
    {
      "constant": false,
      "inputs": [
        {
          "internalType": "string",
          "name": "_caraddress_s",
          "type": "string"
        },
        {
          "internalType": "uint256[16]",
          "name": "_map",
          "type": "uint256[16]"
        }
      ],
      "name": "ReceiveCD",
      "outputs": [
        {
          "internalType": "uint256[16]",
          "name": "",
          "type": "uint256[16]"
        }
      ],
      "payable": false,
      "stateMutability": "nonpayable",
      "type": "function"
    },
    {
      "constant": true,
      "inputs": [],
      "name": "R_car_num",
      "outputs": [
        {
          "internalType": "uint256",
          "name": "",
          "type": "uint256"
        }
      ],
      "payable": false,
      "stateMutability": "view",
      "type": "function"
    },
    {
      "constant": true,
      "inputs": [
        {
          "internalType": "uint256",
          "name": "_car_num",
          "type": "uint256"
        }
      ],
      "name": "SendTX",
      "outputs": [
        {
          "internalType": "uint256[16]",
          "name": "",
          "type": "uint256[16]"
        }
      ],
      "payable": false,
      "stateMutability": "view",
      "type": "function"
    },
    {
      "constant": true,
      "inputs": [
        {
          "internalType": "contract Processing",
          "name": "processing",
          "type": "address"
        }
      ],
      "name": "Resp_s",
      "outputs": [
        {
          "internalType": "uint256",
          "name": "",
          "type": "uint256"
        }
      ],
      "payable": false,
      "stateMutability": "view",
      "type": "function"
    }
  ],
  "bytecode": "0x608060405234801561001057600080fd5b5061057e806100206000396000f3fe608060405234801561001057600080fd5b506004361061004c5760003560e01c806353f69d261461005157806361eb8bc91461018b5780636caa77be146101f5578063edc0e68114610213575b600080fd5b61014d600480360361022081101561006857600080fd5b810190808035906020019064010000000081111561008557600080fd5b82018360208201111561009757600080fd5b803590602001918460018302840111640100000000831117156100b957600080fd5b91908080601f016020809104026020016040519081016040528093929190818152602001838380828437600081840152601f19601f8201169050808301925050505050505091929192908061020001906010806020026040519081016040528092919082601060200280828437600081840152601f19601f820116905080830192505050505050919291929050505061026b565b6040518082601060200280838360005b8381101561017857808201518184015260208101905061015d565b5050505090500191505060405180910390f35b6101b7600480360360208110156101a157600080fd5b810190808035906020019092919050505061039c565b6040518082601060200280838360005b838110156101e25780820151818401526020810190506101c7565b5050505090500191505060405180910390f35b6101fd610403565b6040518082815260200191505060405180910390f35b6102556004803603602081101561022957600080fd5b81019080803573ffffffffffffffffffffffffffffffffffffffff169060200190929190505050610415565b6040518082815260200191505060405180910390f35b6102736104c1565b606061027e8461049f565b9050600061028b826104a9565b9050600080815480929190600101919050555060405180604001604052808273ffffffffffffffffffffffffffffffffffffffff16815260200185815250600160008054815260200190815260200160002060008201518160000160006101000a81548173ffffffffffffffffffffffffffffffffffffffff021916908373ffffffffffffffffffffffffffffffffffffffff16021790555060208201518160010190601061033b9291906104e4565b50905050600160008054815260200190815260200160002060010160108060200260405190810160405280929190826010801561038d576020028201915b815481526020019060010190808311610379575b50505050509250505092915050565b6103a46104c1565b6000600160008481526020019081526020016000209050806001016010806020026040519081016040528092919082601080156103f6576020028201915b8154815260200190600101908083116103e2575b5050505050915050919050565b60006104106000546104b7565b905090565b60008173ffffffffffffffffffffffffffffffffffffffff16630dc8b6ae6040518163ffffffff1660e01b815260040160206040518083038186803b15801561045d57600080fd5b505afa158015610471573d6000803e3d6000fd5b505050506040513d602081101561048757600080fd5b81019080805190602001909291905050509050919050565b6060819050919050565b600060148201519050919050565b6000819050919050565b604051806102000160405280601090602082028038833980820191505090505090565b8260108101928215610513579160200282015b828111156105125782518255916020019190600101906104f7565b5b5090506105209190610524565b5090565b61054691905b8082111561054257600081600090555060010161052a565b5090565b9056fea265627a7a72315820e7ea1da050097064317f09581193efdc224980d39ff301069a2fbbb0411bdfa364736f6c634300050c0032",
  "source": "pragma solidity ^0.5.12;\n\n\ncontract Trading {\n    \n    struct Car{\n        address car_addr;\n        uint[16] map;\n\n    }\n    \n    function StringToBytesVer1(string memory source) internal pure returns (bytes memory) {\n        return bytes(source);\n    }\n    function bytesToAddress(bytes memory bys) internal pure returns (address addr) {\n      assembly {\n        addr := mload(add(bys,20))\n      }\n    }\n  \n    uint car_num;\n    mapping (uint=>Car) car_map;\n\n    function ReceiveCD (string memory _caraddress_s,uint[16] memory _map) public returns(uint[16] memory) {\n        bytes memory add_byte=StringToBytesVer1(_caraddress_s);\n        address _caraddress=bytesToAddress(add_byte);\n        car_num++;\n        car_map[car_num] = Car(_caraddress,_map);\n        return (car_map[car_num].map);\n    } \n    \n    function storageToMemory(uint o) pure internal returns(uint){\n        return o;\n    }\n    function R_car_num() public view returns(uint){\n        return storageToMemory(car_num);\n    }\n    \n    function SendTX(uint _car_num) public view returns(uint[16] memory){\n        Car storage c = car_map[_car_num];\n        return (c.map);\n    }\n\n    function Resp_s(Processing processing) public view returns(uint){\n        return processing.SeSpeed();\n    }\n}\n\ncontract Processing {\n    uint speed;\n    \n    function ReSpeed(uint sp) public returns(uint){\n        speed=sp;\n        uint sp_m=speed;\n        return sp_m;\n    }\n\n    function SeSpeed() public view returns(uint){\n       uint RecommandSpeed = speed;\n       return RecommandSpeed;\n    }\n}\n\n\n\n\n",
  "sourcePath": "/home/seed/Desktop/Try_Again/contracts/Test.sol",
  "compiler": {
    "name": "solc",
    "version": "0.5.12+commit.7709ece9.Emscripten.clang"
  },
  "schemaVersion": "3.0.11",
  "updatedAt": "2021-08-05T15:12:01.791Z",
  "devdoc": {
    "methods": {}
  },
  "userdoc": {
    "methods": {}
  }
}